{
  "_format": "hh-sol-artifact-1",
  "contractName": "Card3",
  "sourceName": "contracts/Card3.sol",
  "abi": [
    {
      "inputs": [],
      "stateMutability": "nonpayable",
      "type": "constructor"
    },
    {
      "anonymous": false,
      "inputs": [
        {
          "indexed": true,
          "internalType": "address",
          "name": "owner",
          "type": "address"
        },
        {
          "indexed": true,
          "internalType": "address",
          "name": "approved",
          "type": "address"
        },
        {
          "indexed": true,
          "internalType": "uint256",
          "name": "tokenId",
          "type": "uint256"
        }
      ],
      "name": "Approval",
      "type": "event"
    },
    {
      "anonymous": false,
      "inputs": [
        {
          "indexed": true,
          "internalType": "address",
          "name": "owner",
          "type": "address"
        },
        {
          "indexed": true,
          "internalType": "address",
          "name": "operator",
          "type": "address"
        },
        {
          "indexed": false,
          "internalType": "bool",
          "name": "approved",
          "type": "bool"
        }
      ],
      "name": "ApprovalForAll",
      "type": "event"
    },
    {
      "anonymous": false,
      "inputs": [
        {
          "indexed": true,
          "internalType": "address",
          "name": "from",
          "type": "address"
        },
        {
          "indexed": true,
          "internalType": "address",
          "name": "to",
          "type": "address"
        },
        {
          "indexed": true,
          "internalType": "uint256",
          "name": "tokenId",
          "type": "uint256"
        }
      ],
      "name": "Transfer",
      "type": "event"
    },
    {
      "inputs": [
        {
          "internalType": "address",
          "name": "to",
          "type": "address"
        },
        {
          "internalType": "uint256",
          "name": "tokenId",
          "type": "uint256"
        }
      ],
      "name": "approve",
      "outputs": [],
      "stateMutability": "nonpayable",
      "type": "function"
    },
    {
      "inputs": [
        {
          "internalType": "address",
          "name": "owner",
          "type": "address"
        }
      ],
      "name": "balanceOf",
      "outputs": [
        {
          "internalType": "uint256",
          "name": "",
          "type": "uint256"
        }
      ],
      "stateMutability": "view",
      "type": "function"
    },
    {
      "inputs": [
        {
          "internalType": "uint256",
          "name": "tokenId",
          "type": "uint256"
        }
      ],
      "name": "getApproved",
      "outputs": [
        {
          "internalType": "address",
          "name": "",
          "type": "address"
        }
      ],
      "stateMutability": "view",
      "type": "function"
    },
    {
      "inputs": [
        {
          "internalType": "address",
          "name": "owner",
          "type": "address"
        },
        {
          "internalType": "address",
          "name": "operator",
          "type": "address"
        }
      ],
      "name": "isApprovedForAll",
      "outputs": [
        {
          "internalType": "bool",
          "name": "",
          "type": "bool"
        }
      ],
      "stateMutability": "view",
      "type": "function"
    },
    {
      "inputs": [
        {
          "internalType": "string",
          "name": "tokenURI",
          "type": "string"
        }
      ],
      "name": "mint",
      "outputs": [
        {
          "internalType": "uint256",
          "name": "",
          "type": "uint256"
        }
      ],
      "stateMutability": "nonpayable",
      "type": "function"
    },
    {
      "inputs": [],
      "name": "name",
      "outputs": [
        {
          "internalType": "string",
          "name": "",
          "type": "string"
        }
      ],
      "stateMutability": "view",
      "type": "function"
    },
    {
      "inputs": [
        {
          "internalType": "uint256",
          "name": "tokenId",
          "type": "uint256"
        }
      ],
      "name": "ownerOf",
      "outputs": [
        {
          "internalType": "address",
          "name": "",
          "type": "address"
        }
      ],
      "stateMutability": "view",
      "type": "function"
    },
    {
      "inputs": [
        {
          "internalType": "address",
          "name": "from",
          "type": "address"
        },
        {
          "internalType": "address",
          "name": "to",
          "type": "address"
        },
        {
          "internalType": "uint256",
          "name": "tokenId",
          "type": "uint256"
        }
      ],
      "name": "safeTransferFrom",
      "outputs": [],
      "stateMutability": "nonpayable",
      "type": "function"
    },
    {
      "inputs": [
        {
          "internalType": "address",
          "name": "from",
          "type": "address"
        },
        {
          "internalType": "address",
          "name": "to",
          "type": "address"
        },
        {
          "internalType": "uint256",
          "name": "tokenId",
          "type": "uint256"
        },
        {
          "internalType": "bytes",
          "name": "_data",
          "type": "bytes"
        }
      ],
      "name": "safeTransferFrom",
      "outputs": [],
      "stateMutability": "nonpayable",
      "type": "function"
    },
    {
      "inputs": [
        {
          "internalType": "address",
          "name": "operator",
          "type": "address"
        },
        {
          "internalType": "bool",
          "name": "approved",
          "type": "bool"
        }
      ],
      "name": "setApprovalForAll",
      "outputs": [],
      "stateMutability": "nonpayable",
      "type": "function"
    },
    {
      "inputs": [
        {
          "internalType": "bytes4",
          "name": "interfaceId",
          "type": "bytes4"
        }
      ],
      "name": "supportsInterface",
      "outputs": [
        {
          "internalType": "bool",
          "name": "",
          "type": "bool"
        }
      ],
      "stateMutability": "view",
      "type": "function"
    },
    {
      "inputs": [],
      "name": "symbol",
      "outputs": [
        {
          "internalType": "string",
          "name": "",
          "type": "string"
        }
      ],
      "stateMutability": "view",
      "type": "function"
    },
    {
      "inputs": [
        {
          "internalType": "uint256",
          "name": "index",
          "type": "uint256"
        }
      ],
      "name": "tokenByIndex",
      "outputs": [
        {
          "internalType": "uint256",
          "name": "",
          "type": "uint256"
        }
      ],
      "stateMutability": "view",
      "type": "function"
    },
    {
      "inputs": [
        {
          "internalType": "address",
          "name": "owner",
          "type": "address"
        },
        {
          "internalType": "uint256",
          "name": "index",
          "type": "uint256"
        }
      ],
      "name": "tokenOfOwnerByIndex",
      "outputs": [
        {
          "internalType": "uint256",
          "name": "",
          "type": "uint256"
        }
      ],
      "stateMutability": "view",
      "type": "function"
    },
    {
      "inputs": [
        {
          "internalType": "uint256",
          "name": "tokenId",
          "type": "uint256"
        }
      ],
      "name": "tokenURI",
      "outputs": [
        {
          "internalType": "string",
          "name": "",
          "type": "string"
        }
      ],
      "stateMutability": "view",
      "type": "function"
    },
    {
      "inputs": [],
      "name": "totalSupply",
      "outputs": [
        {
          "internalType": "uint256",
          "name": "",
          "type": "uint256"
        }
      ],
      "stateMutability": "view",
      "type": "function"
    },
    {
      "inputs": [
        {
          "internalType": "address",
          "name": "from",
          "type": "address"
        },
        {
          "internalType": "address",
          "name": "to",
          "type": "address"
        },
        {
          "internalType": "uint256",
          "name": "tokenId",
          "type": "uint256"
        }
      ],
      "name": "transferFrom",
      "outputs": [],
      "stateMutability": "nonpayable",
      "type": "function"
    }
  ],
  "bytecode": "0x60806040523480156200001157600080fd5b506040518060400160405280600c81526020017f5375706572204d6172696f3300000000000000000000000000000000000000008152506040518060400160405280600481526020017f5355503300000000000000000000000000000000000000000000000000000000815250816000908051906020019062000096929190620000b8565b508060019080519060200190620000af929190620000b8565b505050620001cd565b828054620000c69062000168565b90600052602060002090601f016020900481019282620000ea576000855562000136565b82601f106200010557805160ff191683800117855562000136565b8280016001018555821562000136579182015b828111156200013557825182559160200191906001019062000118565b5b50905062000145919062000149565b5090565b5b80821115620001645760008160009055506001016200014a565b5090565b600060028204905060018216806200018157607f821691505b602082108114156200019857620001976200019e565b5b50919050565b7f4e487b7100000000000000000000000000000000000000000000000000000000600052602260045260246000fd5b61336680620001dd6000396000f3fe608060405234801561001057600080fd5b506004361061010b5760003560e01c80634f6ccce7116100a2578063a22cb46511610071578063a22cb465146102de578063b88d4fde146102fa578063c87b56dd14610316578063d85d3d2714610346578063e985e9c5146103765761010b565b80634f6ccce7146102305780636352211e1461026057806370a082311461029057806395d89b41146102c05761010b565b806318160ddd116100de57806318160ddd146101aa57806323b872dd146101c85780632f745c59146101e457806342842e0e146102145761010b565b806301ffc9a71461011057806306fdde0314610140578063081812fc1461015e578063095ea7b31461018e575b600080fd5b61012a60048036038101906101259190612228565b6103a6565b60405161013791906126c9565b60405180910390f35b610148610420565b60405161015591906126e4565b60405180910390f35b610178600480360381019061017391906122cb565b6104b2565b6040516101859190612662565b60405180910390f35b6101a860048036038101906101a391906121e8565b610537565b005b6101b261064f565b6040516101bf9190612946565b60405180910390f35b6101e260048036038101906101dd91906120d2565b61065c565b005b6101fe60048036038101906101f991906121e8565b6106bc565b60405161020b9190612946565b60405180910390f35b61022e600480360381019061022991906120d2565b610761565b005b61024a600480360381019061024591906122cb565b610781565b6040516102579190612946565b60405180910390f35b61027a600480360381019061027591906122cb565b6107f2565b6040516102879190612662565b60405180910390f35b6102aa60048036038101906102a59190612065565b6108a4565b6040516102b79190612946565b60405180910390f35b6102c861095c565b6040516102d591906126e4565b60405180910390f35b6102f860048036038101906102f391906121a8565b6109ee565b005b610314600480360381019061030f9190612125565b610a04565b005b610330600480360381019061032b91906122cb565b610a66565b60405161033d91906126e4565b60405180910390f35b610360600480360381019061035b9190612282565b610bb8565b60405161036d9190612946565b60405180910390f35b610390600480360381019061038b9190612092565b610bef565b60405161039d91906126c9565b60405180910390f35b60007f780e9d63000000000000000000000000000000000000000000000000000000007bffffffffffffffffffffffffffffffffffffffffffffffffffffffff1916827bffffffffffffffffffffffffffffffffffffffffffffffffffffffff19161480610419575061041882610c83565b5b9050919050565b60606000805461042f90612b9c565b80601f016020809104026020016040519081016040528092919081815260200182805461045b90612b9c565b80156104a85780601f1061047d576101008083540402835291602001916104a8565b820191906000526020600020905b81548152906001019060200180831161048b57829003601f168201915b5050505050905090565b60006104bd82610d65565b6104fc576040517f08c379a00000000000000000000000000000000000000000000000000000000081526004016104f3906128a6565b60405180910390fd5b6004600083815260200190815260200160002060009054906101000a900473ffffffffffffffffffffffffffffffffffffffff169050919050565b6000610542826107f2565b90508073ffffffffffffffffffffffffffffffffffffffff168373ffffffffffffffffffffffffffffffffffffffff1614156105b3576040517f08c379a00000000000000000000000000000000000000000000000000000000081526004016105aa906128e6565b60405180910390fd5b8073ffffffffffffffffffffffffffffffffffffffff166105d2610dd1565b73ffffffffffffffffffffffffffffffffffffffff1614806106015750610600816105fb610dd1565b610bef565b5b610640576040517f08c379a0000000000000000000000000000000000000000000000000000000008152600401610637906127e6565b60405180910390fd5b61064a8383610dd9565b505050565b6000600880549050905090565b61066d610667610dd1565b82610e92565b6106ac576040517f08c379a00000000000000000000000000000000000000000000000000000000081526004016106a390612906565b60405180910390fd5b6106b7838383610f70565b505050565b60006106c7836108a4565b8210610708576040517f08c379a00000000000000000000000000000000000000000000000000000000081526004016106ff90612706565b60405180910390fd5b600660008473ffffffffffffffffffffffffffffffffffffffff1673ffffffffffffffffffffffffffffffffffffffff168152602001908152602001600020600083815260200190815260200160002054905092915050565b61077c83838360405180602001604052806000815250610a04565b505050565b600061078b61064f565b82106107cc576040517f08c379a00000000000000000000000000000000000000000000000000000000081526004016107c390612926565b60405180910390fd5b600882815481106107e0576107df612d35565b5b90600052602060002001549050919050565b6000806002600084815260200190815260200160002060009054906101000a900473ffffffffffffffffffffffffffffffffffffffff169050600073ffffffffffffffffffffffffffffffffffffffff168173ffffffffffffffffffffffffffffffffffffffff16141561089b576040517f08c379a000000000000000000000000000000000000000000000000000000000815260040161089290612826565b60405180910390fd5b80915050919050565b60008073ffffffffffffffffffffffffffffffffffffffff168273ffffffffffffffffffffffffffffffffffffffff161415610915576040517f08c379a000000000000000000000000000000000000000000000000000000000815260040161090c90612806565b60405180910390fd5b600360008373ffffffffffffffffffffffffffffffffffffffff1673ffffffffffffffffffffffffffffffffffffffff168152602001908152602001600020549050919050565b60606001805461096b90612b9c565b80601f016020809104026020016040519081016040528092919081815260200182805461099790612b9c565b80156109e45780601f106109b9576101008083540402835291602001916109e4565b820191906000526020600020905b8154815290600101906020018083116109c757829003601f168201915b5050505050905090565b610a006109f9610dd1565b83836111d7565b5050565b610a15610a0f610dd1565b83610e92565b610a54576040517f08c379a0000000000000000000000000000000000000000000000000000000008152600401610a4b90612906565b60405180910390fd5b610a6084848484611344565b50505050565b6060610a7182610d65565b610ab0576040517f08c379a0000000000000000000000000000000000000000000000000000000008152600401610aa790612886565b60405180910390fd5b6000600a60008481526020019081526020016000208054610ad090612b9c565b80601f0160208091040260200160405190810160405280929190818152602001828054610afc90612b9c565b8015610b495780601f10610b1e57610100808354040283529160200191610b49565b820191906000526020600020905b815481529060010190602001808311610b2c57829003601f168201915b505050505090506000610b5a6113a0565b9050600081511415610b70578192505050610bb3565b600082511115610ba5578082604051602001610b8d92919061263e565b60405160208183030381529060405292505050610bb3565b610bae846113b7565b925050505b919050565b6000610bc4600b61145e565b6000610bd0600b611474565b9050610bdc3382611482565b610be6818461165c565b80915050919050565b6000600560008473ffffffffffffffffffffffffffffffffffffffff1673ffffffffffffffffffffffffffffffffffffffff16815260200190815260200160002060008373ffffffffffffffffffffffffffffffffffffffff1673ffffffffffffffffffffffffffffffffffffffff16815260200190815260200160002060009054906101000a900460ff16905092915050565b60007f80ac58cd000000000000000000000000000000000000000000000000000000007bffffffffffffffffffffffffffffffffffffffffffffffffffffffff1916827bffffffffffffffffffffffffffffffffffffffffffffffffffffffff19161480610d4e57507f5b5e139f000000000000000000000000000000000000000000000000000000007bffffffffffffffffffffffffffffffffffffffffffffffffffffffff1916827bffffffffffffffffffffffffffffffffffffffffffffffffffffffff1916145b80610d5e5750610d5d826116d0565b5b9050919050565b60008073ffffffffffffffffffffffffffffffffffffffff166002600084815260200190815260200160002060009054906101000a900473ffffffffffffffffffffffffffffffffffffffff1673ffffffffffffffffffffffffffffffffffffffff1614159050919050565b600033905090565b816004600083815260200190815260200160002060006101000a81548173ffffffffffffffffffffffffffffffffffffffff021916908373ffffffffffffffffffffffffffffffffffffffff160217905550808273ffffffffffffffffffffffffffffffffffffffff16610e4c836107f2565b73ffffffffffffffffffffffffffffffffffffffff167f8c5be1e5ebec7d5bd14f71427d1e84f3dd0314c0f7b2291e5b200ac8c7c3b92560405160405180910390a45050565b6000610e9d82610d65565b610edc576040517f08c379a0000000000000000000000000000000000000000000000000000000008152600401610ed3906127c6565b60405180910390fd5b6000610ee7836107f2565b90508073ffffffffffffffffffffffffffffffffffffffff168473ffffffffffffffffffffffffffffffffffffffff161480610f5657508373ffffffffffffffffffffffffffffffffffffffff16610f3e846104b2565b73ffffffffffffffffffffffffffffffffffffffff16145b80610f675750610f668185610bef565b5b91505092915050565b8273ffffffffffffffffffffffffffffffffffffffff16610f90826107f2565b73ffffffffffffffffffffffffffffffffffffffff1614610fe6576040517f08c379a0000000000000000000000000000000000000000000000000000000008152600401610fdd90612746565b60405180910390fd5b600073ffffffffffffffffffffffffffffffffffffffff168273ffffffffffffffffffffffffffffffffffffffff161415611056576040517f08c379a000000000000000000000000000000000000000000000000000000000815260040161104d90612786565b60405180910390fd5b61106183838361173a565b61106c600082610dd9565b6001600360008573ffffffffffffffffffffffffffffffffffffffff1673ffffffffffffffffffffffffffffffffffffffff16815260200190815260200160002060008282546110bc9190612ab2565b925050819055506001600360008473ffffffffffffffffffffffffffffffffffffffff1673ffffffffffffffffffffffffffffffffffffffff16815260200190815260200160002060008282546111139190612a2b565b92505081905550816002600083815260200190815260200160002060006101000a81548173ffffffffffffffffffffffffffffffffffffffff021916908373ffffffffffffffffffffffffffffffffffffffff160217905550808273ffffffffffffffffffffffffffffffffffffffff168473ffffffffffffffffffffffffffffffffffffffff167fddf252ad1be2c89b69c2b068fc378daa952ba7f163c4a11628f55a4df523b3ef60405160405180910390a46111d283838361184e565b505050565b8173ffffffffffffffffffffffffffffffffffffffff168373ffffffffffffffffffffffffffffffffffffffff161415611246576040517f08c379a000000000000000000000000000000000000000000000000000000000815260040161123d906127a6565b60405180910390fd5b80600560008573ffffffffffffffffffffffffffffffffffffffff1673ffffffffffffffffffffffffffffffffffffffff16815260200190815260200160002060008473ffffffffffffffffffffffffffffffffffffffff1673ffffffffffffffffffffffffffffffffffffffff16815260200190815260200160002060006101000a81548160ff0219169083151502179055508173ffffffffffffffffffffffffffffffffffffffff168373ffffffffffffffffffffffffffffffffffffffff167f17307eab39ab6107e8899845ad3d59bd9653f200f220920489ca2b5937696c318360405161133791906126c9565b60405180910390a3505050565b61134f848484610f70565b61135b84848484611853565b61139a576040517f08c379a000000000000000000000000000000000000000000000000000000000815260040161139190612726565b60405180910390fd5b50505050565b606060405180602001604052806000815250905090565b60606113c282610d65565b611401576040517f08c379a00000000000000000000000000000000000000000000000000000000081526004016113f8906128c6565b60405180910390fd5b600061140b6113a0565b9050600081511161142b5760405180602001604052806000815250611456565b80611435846119ea565b60405160200161144692919061263e565b6040516020818303038152906040525b915050919050565b6001816000016000828254019250508190555050565b600081600001549050919050565b600073ffffffffffffffffffffffffffffffffffffffff168273ffffffffffffffffffffffffffffffffffffffff1614156114f2576040517f08c379a00000000000000000000000000000000000000000000000000000000081526004016114e990612866565b60405180910390fd5b6114fb81610d65565b1561153b576040517f08c379a000000000000000000000000000000000000000000000000000000000815260040161153290612766565b60405180910390fd5b6115476000838361173a565b6001600360008473ffffffffffffffffffffffffffffffffffffffff1673ffffffffffffffffffffffffffffffffffffffff16815260200190815260200160002060008282546115979190612a2b565b92505081905550816002600083815260200190815260200160002060006101000a81548173ffffffffffffffffffffffffffffffffffffffff021916908373ffffffffffffffffffffffffffffffffffffffff160217905550808273ffffffffffffffffffffffffffffffffffffffff16600073ffffffffffffffffffffffffffffffffffffffff167fddf252ad1be2c89b69c2b068fc378daa952ba7f163c4a11628f55a4df523b3ef60405160405180910390a46116586000838361184e565b5050565b61166582610d65565b6116a4576040517f08c379a000000000000000000000000000000000000000000000000000000000815260040161169b90612846565b60405180910390fd5b80600a600084815260200190815260200160002090805190602001906116cb929190611e79565b505050565b60007f01ffc9a7000000000000000000000000000000000000000000000000000000007bffffffffffffffffffffffffffffffffffffffffffffffffffffffff1916827bffffffffffffffffffffffffffffffffffffffffffffffffffffffff1916149050919050565b611745838383611b4b565b600073ffffffffffffffffffffffffffffffffffffffff168373ffffffffffffffffffffffffffffffffffffffff1614156117885761178381611b50565b6117c7565b8173ffffffffffffffffffffffffffffffffffffffff168373ffffffffffffffffffffffffffffffffffffffff16146117c6576117c58382611b99565b5b5b600073ffffffffffffffffffffffffffffffffffffffff168273ffffffffffffffffffffffffffffffffffffffff16141561180a5761180581611d06565b611849565b8273ffffffffffffffffffffffffffffffffffffffff168273ffffffffffffffffffffffffffffffffffffffff1614611848576118478282611dd7565b5b5b505050565b505050565b60006118748473ffffffffffffffffffffffffffffffffffffffff16611e56565b156119dd578373ffffffffffffffffffffffffffffffffffffffff1663150b7a0261189d610dd1565b8786866040518563ffffffff1660e01b81526004016118bf949392919061267d565b602060405180830381600087803b1580156118d957600080fd5b505af192505050801561190a57506040513d601f19601f820116820180604052508101906119079190612255565b60015b61198d573d806000811461193a576040519150601f19603f3d011682016040523d82523d6000602084013e61193f565b606091505b50600081511415611985576040517f08c379a000000000000000000000000000000000000000000000000000000000815260040161197c90612726565b60405180910390fd5b805181602001fd5b63150b7a0260e01b7bffffffffffffffffffffffffffffffffffffffffffffffffffffffff1916817bffffffffffffffffffffffffffffffffffffffffffffffffffffffff1916149150506119e2565b600190505b949350505050565b60606000821415611a32576040518060400160405280600181526020017f30000000000000000000000000000000000000000000000000000000000000008152509050611b46565b600082905060005b60008214611a64578080611a4d90612bff565b915050600a82611a5d9190612a81565b9150611a3a565b60008167ffffffffffffffff811115611a8057611a7f612d64565b5b6040519080825280601f01601f191660200182016040528015611ab25781602001600182028036833780820191505090505b5090505b60008514611b3f57600182611acb9190612ab2565b9150600a85611ada9190612c48565b6030611ae69190612a2b565b60f81b818381518110611afc57611afb612d35565b5b60200101907effffffffffffffffffffffffffffffffffffffffffffffffffffffffffffff1916908160001a905350600a85611b389190612a81565b9450611ab6565b8093505050505b919050565b505050565b6008805490506009600083815260200190815260200160002081905550600881908060018154018082558091505060019003906000526020600020016000909190919091505550565b60006001611ba6846108a4565b611bb09190612ab2565b9050600060076000848152602001908152602001600020549050818114611c95576000600660008673ffffffffffffffffffffffffffffffffffffffff1673ffffffffffffffffffffffffffffffffffffffff168152602001908152602001600020600084815260200190815260200160002054905080600660008773ffffffffffffffffffffffffffffffffffffffff1673ffffffffffffffffffffffffffffffffffffffff168152602001908152602001600020600084815260200190815260200160002081905550816007600083815260200190815260200160002081905550505b6007600084815260200190815260200160002060009055600660008573ffffffffffffffffffffffffffffffffffffffff1673ffffffffffffffffffffffffffffffffffffffff16815260200190815260200160002060008381526020019081526020016000206000905550505050565b60006001600880549050611d1a9190612ab2565b9050600060096000848152602001908152602001600020549050600060088381548110611d4a57611d49612d35565b5b906000526020600020015490508060088381548110611d6c57611d6b612d35565b5b906000526020600020018190555081600960008381526020019081526020016000208190555060096000858152602001908152602001600020600090556008805480611dbb57611dba612d06565b5b6001900381819060005260206000200160009055905550505050565b6000611de2836108a4565b905081600660008573ffffffffffffffffffffffffffffffffffffffff1673ffffffffffffffffffffffffffffffffffffffff168152602001908152602001600020600083815260200190815260200160002081905550806007600084815260200190815260200160002081905550505050565b6000808273ffffffffffffffffffffffffffffffffffffffff163b119050919050565b828054611e8590612b9c565b90600052602060002090601f016020900481019282611ea75760008555611eee565b82601f10611ec057805160ff1916838001178555611eee565b82800160010185558215611eee579182015b82811115611eed578251825591602001919060010190611ed2565b5b509050611efb9190611eff565b5090565b5b80821115611f18576000816000905550600101611f00565b5090565b6000611f2f611f2a84612986565b612961565b905082815260208101848484011115611f4b57611f4a612d98565b5b611f56848285612b5a565b509392505050565b6000611f71611f6c846129b7565b612961565b905082815260208101848484011115611f8d57611f8c612d98565b5b611f98848285612b5a565b509392505050565b600081359050611faf816132d4565b92915050565b600081359050611fc4816132eb565b92915050565b600081359050611fd981613302565b92915050565b600081519050611fee81613302565b92915050565b600082601f83011261200957612008612d93565b5b8135612019848260208601611f1c565b91505092915050565b600082601f83011261203757612036612d93565b5b8135612047848260208601611f5e565b91505092915050565b60008135905061205f81613319565b92915050565b60006020828403121561207b5761207a612da2565b5b600061208984828501611fa0565b91505092915050565b600080604083850312156120a9576120a8612da2565b5b60006120b785828601611fa0565b92505060206120c885828601611fa0565b9150509250929050565b6000806000606084860312156120eb576120ea612da2565b5b60006120f986828701611fa0565b935050602061210a86828701611fa0565b925050604061211b86828701612050565b9150509250925092565b6000806000806080858703121561213f5761213e612da2565b5b600061214d87828801611fa0565b945050602061215e87828801611fa0565b935050604061216f87828801612050565b925050606085013567ffffffffffffffff8111156121905761218f612d9d565b5b61219c87828801611ff4565b91505092959194509250565b600080604083850312156121bf576121be612da2565b5b60006121cd85828601611fa0565b92505060206121de85828601611fb5565b9150509250929050565b600080604083850312156121ff576121fe612da2565b5b600061220d85828601611fa0565b925050602061221e85828601612050565b9150509250929050565b60006020828403121561223e5761223d612da2565b5b600061224c84828501611fca565b91505092915050565b60006020828403121561226b5761226a612da2565b5b600061227984828501611fdf565b91505092915050565b60006020828403121561229857612297612da2565b5b600082013567ffffffffffffffff8111156122b6576122b5612d9d565b5b6122c284828501612022565b91505092915050565b6000602082840312156122e1576122e0612da2565b5b60006122ef84828501612050565b91505092915050565b61230181612ae6565b82525050565b61231081612af8565b82525050565b6000612321826129e8565b61232b81856129fe565b935061233b818560208601612b69565b61234481612da7565b840191505092915050565b600061235a826129f3565b6123648185612a0f565b9350612374818560208601612b69565b61237d81612da7565b840191505092915050565b6000612393826129f3565b61239d8185612a20565b93506123ad818560208601612b69565b80840191505092915050565b60006123c6602b83612a0f565b91506123d182612db8565b604082019050919050565b60006123e9603283612a0f565b91506123f482612e07565b604082019050919050565b600061240c602583612a0f565b915061241782612e56565b604082019050919050565b600061242f601c83612a0f565b915061243a82612ea5565b602082019050919050565b6000612452602483612a0f565b915061245d82612ece565b604082019050919050565b6000612475601983612a0f565b915061248082612f1d565b602082019050919050565b6000612498602c83612a0f565b91506124a382612f46565b604082019050919050565b60006124bb603883612a0f565b91506124c682612f95565b604082019050919050565b60006124de602a83612a0f565b91506124e982612fe4565b604082019050919050565b6000612501602983612a0f565b915061250c82613033565b604082019050919050565b6000612524602e83612a0f565b915061252f82613082565b604082019050919050565b6000612547602083612a0f565b9150612552826130d1565b602082019050919050565b600061256a603183612a0f565b9150612575826130fa565b604082019050919050565b600061258d602c83612a0f565b915061259882613149565b604082019050919050565b60006125b0602f83612a0f565b91506125bb82613198565b604082019050919050565b60006125d3602183612a0f565b91506125de826131e7565b604082019050919050565b60006125f6603183612a0f565b915061260182613236565b604082019050919050565b6000612619602c83612a0f565b915061262482613285565b604082019050919050565b61263881612b50565b82525050565b600061264a8285612388565b91506126568284612388565b91508190509392505050565b600060208201905061267760008301846122f8565b92915050565b600060808201905061269260008301876122f8565b61269f60208301866122f8565b6126ac604083018561262f565b81810360608301526126be8184612316565b905095945050505050565b60006020820190506126de6000830184612307565b92915050565b600060208201905081810360008301526126fe818461234f565b905092915050565b6000602082019050818103600083015261271f816123b9565b9050919050565b6000602082019050818103600083015261273f816123dc565b9050919050565b6000602082019050818103600083015261275f816123ff565b9050919050565b6000602082019050818103600083015261277f81612422565b9050919050565b6000602082019050818103600083015261279f81612445565b9050919050565b600060208201905081810360008301526127bf81612468565b9050919050565b600060208201905081810360008301526127df8161248b565b9050919050565b600060208201905081810360008301526127ff816124ae565b9050919050565b6000602082019050818103600083015261281f816124d1565b9050919050565b6000602082019050818103600083015261283f816124f4565b9050919050565b6000602082019050818103600083015261285f81612517565b9050919050565b6000602082019050818103600083015261287f8161253a565b9050919050565b6000602082019050818103600083015261289f8161255d565b9050919050565b600060208201905081810360008301526128bf81612580565b9050919050565b600060208201905081810360008301526128df816125a3565b9050919050565b600060208201905081810360008301526128ff816125c6565b9050919050565b6000602082019050818103600083015261291f816125e9565b9050919050565b6000602082019050818103600083015261293f8161260c565b9050919050565b600060208201905061295b600083018461262f565b92915050565b600061296b61297c565b90506129778282612bce565b919050565b6000604051905090565b600067ffffffffffffffff8211156129a1576129a0612d64565b5b6129aa82612da7565b9050602081019050919050565b600067ffffffffffffffff8211156129d2576129d1612d64565b5b6129db82612da7565b9050602081019050919050565b600081519050919050565b600081519050919050565b600082825260208201905092915050565b600082825260208201905092915050565b600081905092915050565b6000612a3682612b50565b9150612a4183612b50565b9250827fffffffffffffffffffffffffffffffffffffffffffffffffffffffffffffffff03821115612a7657612a75612c79565b5b828201905092915050565b6000612a8c82612b50565b9150612a9783612b50565b925082612aa757612aa6612ca8565b5b828204905092915050565b6000612abd82612b50565b9150612ac883612b50565b925082821015612adb57612ada612c79565b5b828203905092915050565b6000612af182612b30565b9050919050565b60008115159050919050565b60007fffffffff0000000000000000000000000000000000000000000000000000000082169050919050565b600073ffffffffffffffffffffffffffffffffffffffff82169050919050565b6000819050919050565b82818337600083830152505050565b60005b83811015612b87578082015181840152602081019050612b6c565b83811115612b96576000848401525b50505050565b60006002820490506001821680612bb457607f821691505b60208210811415612bc857612bc7612cd7565b5b50919050565b612bd782612da7565b810181811067ffffffffffffffff82111715612bf657612bf5612d64565b5b80604052505050565b6000612c0a82612b50565b91507fffffffffffffffffffffffffffffffffffffffffffffffffffffffffffffffff821415612c3d57612c3c612c79565b5b600182019050919050565b6000612c5382612b50565b9150612c5e83612b50565b925082612c6e57612c6d612ca8565b5b828206905092915050565b7f4e487b7100000000000000000000000000000000000000000000000000000000600052601160045260246000fd5b7f4e487b7100000000000000000000000000000000000000000000000000000000600052601260045260246000fd5b7f4e487b7100000000000000000000000000000000000000000000000000000000600052602260045260246000fd5b7f4e487b7100000000000000000000000000000000000000000000000000000000600052603160045260246000fd5b7f4e487b7100000000000000000000000000000000000000000000000000000000600052603260045260246000fd5b7f4e487b7100000000000000000000000000000000000000000000000000000000600052604160045260246000fd5b600080fd5b600080fd5b600080fd5b600080fd5b6000601f19601f8301169050919050565b7f455243373231456e756d657261626c653a206f776e657220696e646578206f7560008201527f74206f6620626f756e6473000000000000000000000000000000000000000000602082015250565b7f4552433732313a207472616e7366657220746f206e6f6e20455243373231526560008201527f63656976657220696d706c656d656e7465720000000000000000000000000000602082015250565b7f4552433732313a207472616e736665722066726f6d20696e636f72726563742060008201527f6f776e6572000000000000000000000000000000000000000000000000000000602082015250565b7f4552433732313a20746f6b656e20616c7265616479206d696e74656400000000600082015250565b7f4552433732313a207472616e7366657220746f20746865207a65726f2061646460008201527f7265737300000000000000000000000000000000000000000000000000000000602082015250565b7f4552433732313a20617070726f766520746f2063616c6c657200000000000000600082015250565b7f4552433732313a206f70657261746f7220717565727920666f72206e6f6e657860008201527f697374656e7420746f6b656e0000000000000000000000000000000000000000602082015250565b7f4552433732313a20617070726f76652063616c6c6572206973206e6f74206f7760008201527f6e6572206e6f7220617070726f76656420666f7220616c6c0000000000000000602082015250565b7f4552433732313a2062616c616e636520717565727920666f7220746865207a6560008201527f726f206164647265737300000000000000000000000000000000000000000000602082015250565b7f4552433732313a206f776e657220717565727920666f72206e6f6e657869737460008201527f656e7420746f6b656e0000000000000000000000000000000000000000000000602082015250565b7f45524337323155524953746f726167653a2055524920736574206f66206e6f6e60008201527f6578697374656e7420746f6b656e000000000000000000000000000000000000602082015250565b7f4552433732313a206d696e7420746f20746865207a65726f2061646472657373600082015250565b7f45524337323155524953746f726167653a2055524920717565727920666f722060008201527f6e6f6e6578697374656e7420746f6b656e000000000000000000000000000000602082015250565b7f4552433732313a20617070726f76656420717565727920666f72206e6f6e657860008201527f697374656e7420746f6b656e0000000000000000000000000000000000000000602082015250565b7f4552433732314d657461646174613a2055524920717565727920666f72206e6f60008201527f6e6578697374656e7420746f6b656e0000000000000000000000000000000000602082015250565b7f4552433732313a20617070726f76616c20746f2063757272656e74206f776e6560008201527f7200000000000000000000000000000000000000000000000000000000000000602082015250565b7f4552433732313a207472616e736665722063616c6c6572206973206e6f74206f60008201527f776e6572206e6f7220617070726f766564000000000000000000000000000000602082015250565b7f455243373231456e756d657261626c653a20676c6f62616c20696e646578206f60008201527f7574206f6620626f756e64730000000000000000000000000000000000000000602082015250565b6132dd81612ae6565b81146132e857600080fd5b50565b6132f481612af8565b81146132ff57600080fd5b50565b61330b81612b04565b811461331657600080fd5b50565b61332281612b50565b811461332d57600080fd5b5056fea2646970667358221220e9caf38d7e4a19bba08b13332b93ef484a7f24bfdf6ac2c8d43a6dbfca71613c64736f6c63430008070033",
  "linkReferences": {},
  "deployedLinkReferences": {}
}